{
  "contractName": "Voting",
  "abi": [
    {
      "inputs": [
        {
          "internalType": "string[]",
          "name": "candidateNames",
          "type": "string[]"
        }
      ],
      "stateMutability": "nonpayable",
      "type": "constructor"
    },
    {
      "inputs": [],
      "name": "admin",
      "outputs": [
        {
          "internalType": "address",
          "name": "",
          "type": "address"
        }
      ],
      "stateMutability": "view",
      "type": "function",
      "constant": true
    },
    {
      "inputs": [
        {
          "internalType": "uint256",
          "name": "",
          "type": "uint256"
        }
      ],
      "name": "candidateList",
      "outputs": [
        {
          "internalType": "string",
          "name": "",
          "type": "string"
        }
      ],
      "stateMutability": "view",
      "type": "function",
      "constant": true
    },
    {
      "inputs": [
        {
          "internalType": "address",
          "name": "",
          "type": "address"
        }
      ],
      "name": "hasVoted",
      "outputs": [
        {
          "internalType": "bool",
          "name": "",
          "type": "bool"
        }
      ],
      "stateMutability": "view",
      "type": "function",
      "constant": true
    },
    {
      "inputs": [
        {
          "internalType": "uint256",
          "name": "",
          "type": "uint256"
        }
      ],
      "name": "votedAccounts",
      "outputs": [
        {
          "internalType": "address",
          "name": "",
          "type": "address"
        }
      ],
      "stateMutability": "view",
      "type": "function",
      "constant": true
    },
    {
      "inputs": [
        {
          "internalType": "string",
          "name": "",
          "type": "string"
        }
      ],
      "name": "votesReceived",
      "outputs": [
        {
          "internalType": "uint256",
          "name": "",
          "type": "uint256"
        }
      ],
      "stateMutability": "view",
      "type": "function",
      "constant": true
    },
    {
      "inputs": [],
      "name": "votingEnded",
      "outputs": [
        {
          "internalType": "bool",
          "name": "",
          "type": "bool"
        }
      ],
      "stateMutability": "view",
      "type": "function",
      "constant": true
    },
    {
      "inputs": [],
      "name": "winner",
      "outputs": [
        {
          "internalType": "string",
          "name": "",
          "type": "string"
        }
      ],
      "stateMutability": "view",
      "type": "function",
      "constant": true
    },
    {
      "inputs": [
        {
          "internalType": "string",
          "name": "candidateName",
          "type": "string"
        }
      ],
      "name": "addCandidate",
      "outputs": [],
      "stateMutability": "nonpayable",
      "type": "function"
    },
    {
      "inputs": [
        {
          "internalType": "string",
          "name": "candidate",
          "type": "string"
        }
      ],
      "name": "voteForCandidate",
      "outputs": [],
      "stateMutability": "nonpayable",
      "type": "function"
    },
    {
      "inputs": [
        {
          "internalType": "string",
          "name": "candidate",
          "type": "string"
        }
      ],
      "name": "totalVotesFor",
      "outputs": [
        {
          "internalType": "uint256",
          "name": "",
          "type": "uint256"
        }
      ],
      "stateMutability": "view",
      "type": "function",
      "constant": true
    },
    {
      "inputs": [],
      "name": "endVoting",
      "outputs": [],
      "stateMutability": "nonpayable",
      "type": "function"
    },
    {
      "inputs": [],
      "name": "getWinner",
      "outputs": [
        {
          "internalType": "string",
          "name": "",
          "type": "string"
        }
      ],
      "stateMutability": "view",
      "type": "function",
      "constant": true
    },
    {
      "inputs": [
        {
          "internalType": "string[]",
          "name": "newCandidates",
          "type": "string[]"
        }
      ],
      "name": "resetElection",
      "outputs": [],
      "stateMutability": "nonpayable",
      "type": "function"
    },
    {
      "inputs": [],
      "name": "candidateListLength",
      "outputs": [
        {
          "internalType": "uint256",
          "name": "",
          "type": "uint256"
        }
      ],
      "stateMutability": "view",
      "type": "function",
      "constant": true
    },
    {
      "inputs": [],
      "name": "isVotingOngoing",
      "outputs": [
        {
          "internalType": "bool",
          "name": "",
          "type": "bool"
        }
      ],
      "stateMutability": "view",
      "type": "function",
      "constant": true
    }
  ],
  "bytecode": "0x60806040523480156200001157600080fd5b5060405162001f8438038062001f8483398181016040528101906200003791906200033a565b336000806101000a81548173ffffffffffffffffffffffffffffffffffffffff021916908373ffffffffffffffffffffffffffffffffffffffff16021790555080600190805190602001906200008f929190620000b1565b5060008060146101000a81548160ff02191690831515021790555050620004df565b82805482825590600052602060002090810192821562000105579160200282015b8281111562000104578251829080519060200190620000f392919062000118565b5091602001919060010190620000d2565b5b509050620001149190620001a9565b5090565b82805462000126906200044b565b90600052602060002090601f0160209004810192826200014a576000855562000196565b82601f106200016557805160ff191683800117855562000196565b8280016001018555821562000196579182015b828111156200019557825182559160200191906001019062000178565b5b509050620001a59190620001d1565b5090565b5b80821115620001cd5760008181620001c39190620001f0565b50600101620001aa565b5090565b5b80821115620001ec576000816000905550600101620001d2565b5090565b508054620001fe906200044b565b6000825580601f1062000212575062000233565b601f016020900490600052602060002090810190620002329190620001d1565b5b50565b60006200024d6200024784620003b3565b6200037f565b9050808382526020820190508260005b858110156200029157815185016200027688826200030d565b8452602084019350602083019250506001810190506200025d565b5050509392505050565b6000620002b2620002ac84620003e2565b6200037f565b905082815260208101848484011115620002cb57600080fd5b620002d884828562000415565b509392505050565b600082601f830112620002f257600080fd5b81516200030484826020860162000236565b91505092915050565b600082601f8301126200031f57600080fd5b8151620003318482602086016200029b565b91505092915050565b6000602082840312156200034d57600080fd5b600082015167ffffffffffffffff8111156200036857600080fd5b6200037684828501620002e0565b91505092915050565b6000604051905081810181811067ffffffffffffffff82111715620003a957620003a8620004b0565b5b8060405250919050565b600067ffffffffffffffff821115620003d157620003d0620004b0565b5b602082029050602081019050919050565b600067ffffffffffffffff8211156200040057620003ff620004b0565b5b601f19601f8301169050602081019050919050565b60005b838110156200043557808201518184015260208101905062000418565b8381111562000445576000848401525b50505050565b600060028204905060018216806200046457607f821691505b602082108114156200047b576200047a62000481565b5b50919050565b7f4e487b7100000000000000000000000000000000000000000000000000000000600052602260045260246000fd5b7f4e487b7100000000000000000000000000000000000000000000000000000000600052604160045260246000fd5b611a9580620004ef6000396000f3fe608060405234801561001057600080fd5b50600436106100f55760003560e01c80639d5a052911610097578063c9b5452611610066578063c9b5452614610274578063dfbf53ae146102a4578063e89927ef146102c2578063f851a440146102de576100f5565b80639d5a0529146101fe578063b13c744b1461021c578063b1a71a471461024c578063c3403ddf1461026a576100f5565b80634a3bf377116100d35780634a3bf377146101625780637a99d766146101925780638d4b44d9146101b05780638e7ea5b2146101e0576100f5565b806309eef43e146100fa57806329fe40471461012a578063462e91ec14610146575b600080fd5b610114600480360381019061010f9190611228565b6102fc565b6040516101219190611657565b60405180910390f35b610144600480360381019061013f9190611251565b61031c565b005b610160600480360381019061015b9190611292565b61065f565b005b61017c60048036038101906101779190611292565b61072c565b6040516101899190611734565b60405180910390f35b61019a61079c565b6040516101a79190611734565b60405180910390f35b6101ca60048036038101906101c59190611292565b6107a9565b6040516101d79190611734565b60405180910390f35b6101e86107d7565b6040516101f59190611672565b60405180910390f35b6102066108b8565b6040516102139190611657565b60405180910390f35b610236600480360381019061023191906112d3565b6108cb565b6040516102439190611672565b60405180910390f35b610254610977565b6040516102619190611657565b60405180910390f35b61027261098e565b005b61028e600480360381019061028991906112d3565b610b8b565b60405161029b919061163c565b60405180910390f35b6102ac610bca565b6040516102b99190611672565b60405180910390f35b6102dc60048036038101906102d79190611292565b610c58565b005b6102e6610e71565b6040516102f3919061163c565b60405180910390f35b60036020528060005260406000206000915054906101000a900460ff1681565b60008054906101000a900473ffffffffffffffffffffffffffffffffffffffff1673ffffffffffffffffffffffffffffffffffffffff163373ffffffffffffffffffffffffffffffffffffffff16146103aa576040517f08c379a00000000000000000000000000000000000000000000000000000000081526004016103a1906116d4565b60405180910390fd5b600060149054906101000a900460ff166103f9576040517f08c379a00000000000000000000000000000000000000000000000000000000081526004016103f0906116f4565b60405180910390fd5b60005b600180549050811015610483576000600260018381548110610447577f4e487b7100000000000000000000000000000000000000000000000000000000600052603260045260246000fd5b9060005260206000200160405161045e9190611625565b908152602001604051809103902081905550808061047b9061194a565b9150506103fc565b50600160006104929190610f39565b60005b815181101561052d5760018282815181106104d9577f4e487b7100000000000000000000000000000000000000000000000000000000600052603260045260246000fd5b6020026020010151908060018154018082558091505060019003906000526020600020016000909190919091509080519060200190610519929190610f5a565b5080806105259061194a565b915050610495565b5060005b60048054905081101561060d576000600360006004848154811061057e577f4e487b7100000000000000000000000000000000000000000000000000000000600052603260045260246000fd5b9060005260206000200160009054906101000a900473ffffffffffffffffffffffffffffffffffffffff1673ffffffffffffffffffffffffffffffffffffffff1673ffffffffffffffffffffffffffffffffffffffff16815260200190815260200160002060006101000a81548160ff02191690831515021790555080806106059061194a565b915050610531565b506004600061061c9190610fe0565b60008060146101000a81548160ff021916908315150217905550604051806020016040528060008152506005908051906020019061065b929190610f5a565b5050565b60008054906101000a900473ffffffffffffffffffffffffffffffffffffffff1673ffffffffffffffffffffffffffffffffffffffff163373ffffffffffffffffffffffffffffffffffffffff16146106ed576040517f08c379a00000000000000000000000000000000000000000000000000000000081526004016106e4906116d4565b60405180910390fd5b600181908060018154018082558091505060019003906000526020600020016000909190919091509080519060200190610728929190610f5a565b5050565b600061073782610e95565b610776576040517f08c379a000000000000000000000000000000000000000000000000000000000815260040161076d90611694565b60405180910390fd5b600282604051610786919061160e565b9081526020016040518091039020549050919050565b6000600180549050905090565b6002818051602081018201805184825260208301602085012081835280955050505050506000915090505481565b6060600060149054906101000a900460ff16610828576040517f08c379a000000000000000000000000000000000000000000000000000000000815260040161081f906116f4565b60405180910390fd5b6005805461083590611918565b80601f016020809104026020016040519081016040528092919081815260200182805461086190611918565b80156108ae5780601f10610883576101008083540402835291602001916108ae565b820191906000526020600020905b81548152906001019060200180831161089157829003601f168201915b5050505050905090565b600060149054906101000a900460ff1681565b600181815481106108db57600080fd5b9060005260206000200160009150905080546108f690611918565b80601f016020809104026020016040519081016040528092919081815260200182805461092290611918565b801561096f5780601f106109445761010080835404028352916020019161096f565b820191906000526020600020905b81548152906001019060200180831161095257829003601f168201915b505050505081565b60008060149054906101000a900460ff1615905090565b60008054906101000a900473ffffffffffffffffffffffffffffffffffffffff1673ffffffffffffffffffffffffffffffffffffffff163373ffffffffffffffffffffffffffffffffffffffff1614610a1c576040517f08c379a0000000000000000000000000000000000000000000000000000000008152600401610a13906116d4565b60405180910390fd5b6001600060146101000a81548160ff0219169083151502179055506000805b600180549050811015610b875781600260018381548110610a85577f4e487b7100000000000000000000000000000000000000000000000000000000600052603260045260246000fd5b90600052602060002001604051610a9c9190611625565b9081526020016040518091039020541115610b7457600260018281548110610aed577f4e487b7100000000000000000000000000000000000000000000000000000000600052603260045260246000fd5b90600052602060002001604051610b049190611625565b908152602001604051809103902054915060018181548110610b4f577f4e487b7100000000000000000000000000000000000000000000000000000000600052603260045260246000fd5b906000526020600020016005908054610b6790611918565b610b72929190611001565b505b8080610b7f9061194a565b915050610a3b565b5050565b60048181548110610b9b57600080fd5b906000526020600020016000915054906101000a900473ffffffffffffffffffffffffffffffffffffffff1681565b60058054610bd790611918565b80601f0160208091040260200160405190810160405280929190818152602001828054610c0390611918565b8015610c505780601f10610c2557610100808354040283529160200191610c50565b820191906000526020600020905b815481529060010190602001808311610c3357829003601f168201915b505050505081565b600060149054906101000a900460ff1615610ca8576040517f08c379a0000000000000000000000000000000000000000000000000000000008152600401610c9f906116b4565b60405180910390fd5b600360003373ffffffffffffffffffffffffffffffffffffffff1673ffffffffffffffffffffffffffffffffffffffff16815260200190815260200160002060009054906101000a900460ff1615610d35576040517f08c379a0000000000000000000000000000000000000000000000000000000008152600401610d2c90611714565b60405180910390fd5b610d3e81610e95565b610d7d576040517f08c379a0000000000000000000000000000000000000000000000000000000008152600401610d7490611694565b60405180910390fd5b6001600282604051610d8f919061160e565b90815260200160405180910390206000828254610dac9190611838565b925050819055506001600360003373ffffffffffffffffffffffffffffffffffffffff1673ffffffffffffffffffffffffffffffffffffffff16815260200190815260200160002060006101000a81548160ff0219169083151502179055506004339080600181540180825580915050600190039060005260206000200160009091909190916101000a81548173ffffffffffffffffffffffffffffffffffffffff021916908373ffffffffffffffffffffffffffffffffffffffff16021790555050565b60008054906101000a900473ffffffffffffffffffffffffffffffffffffffff1681565b600080600090505b600180549050811015610f2e57828051906020012060018281548110610eec577f4e487b7100000000000000000000000000000000000000000000000000000000600052603260045260246000fd5b90600052602060002001604051610f0391906115f7565b60405180910390201415610f1b576001915050610f34565b8080610f269061194a565b915050610e9d565b50600090505b919050565b5080546000825590600052602060002090810190610f57919061108e565b50565b828054610f6690611918565b90600052602060002090601f016020900481019282610f885760008555610fcf565b82601f10610fa157805160ff1916838001178555610fcf565b82800160010185558215610fcf579182015b82811115610fce578251825591602001919060010190610fb3565b5b509050610fdc91906110b2565b5090565b5080546000825590600052602060002090810190610ffe91906110b2565b50565b82805461100d90611918565b90600052602060002090601f01602090048101928261102f576000855561107d565b82601f10611040578054855561107d565b8280016001018555821561107d57600052602060002091601f016020900482015b8281111561107c578254825591600101919060010190611061565b5b50905061108a91906110b2565b5090565b5b808211156110ae57600081816110a591906110cf565b5060010161108f565b5090565b5b808211156110cb5760008160009055506001016110b3565b5090565b5080546110db90611918565b6000825580601f106110ed575061110c565b601f01602090049060005260206000209081019061110b91906110b2565b5b50565b600061112261111d84611780565b61174f565b9050808382526020820190508260005b85811015611162578135850161114888826111e9565b845260208401935060208301925050600181019050611132565b5050509392505050565b600061117f61117a846117ac565b61174f565b90508281526020810184848401111561119757600080fd5b6111a28482856118d6565b509392505050565b6000813590506111b981611a31565b92915050565b600082601f8301126111d057600080fd5b81356111e084826020860161110f565b91505092915050565b600082601f8301126111fa57600080fd5b813561120a84826020860161116c565b91505092915050565b60008135905061122281611a48565b92915050565b60006020828403121561123a57600080fd5b6000611248848285016111aa565b91505092915050565b60006020828403121561126357600080fd5b600082013567ffffffffffffffff81111561127d57600080fd5b611289848285016111bf565b91505092915050565b6000602082840312156112a457600080fd5b600082013567ffffffffffffffff8111156112be57600080fd5b6112ca848285016111e9565b91505092915050565b6000602082840312156112e557600080fd5b60006112f384828501611213565b91505092915050565b6113058161188e565b82525050565b611314816118a0565b82525050565b6000815461132781611918565b6113318186611811565b9450600182166000811461134c576001811461135d57611390565b60ff19831686528186019350611390565b611366856117dc565b60005b8381101561138857815481890152600182019150602081019050611369565b838801955050505b50505092915050565b60006113a482611806565b6113ae818561181c565b93506113be8185602086016118e5565b6113c781611a20565b840191505092915050565b60006113dd82611806565b6113e7818561182d565b93506113f78185602086016118e5565b80840191505092915050565b6000815461141081611918565b61141a818661182d565b94506001821660008114611435576001811461144657611479565b60ff19831686528186019350611479565b61144f856117f1565b60005b8381101561147157815481890152600182019150602081019050611452565b838801955050505b50505092915050565b600061148f60138361181c565b91507f43616e646964617465206e6f7420666f756e64000000000000000000000000006000830152602082019050919050565b60006114cf60108361181c565b91507f566f74696e672068617320656e646564000000000000000000000000000000006000830152602082019050919050565b600061150f60228361181c565b91507f4f6e6c792061646d696e2063616e20706572666f726d2074686973206163746960008301527f6f6e0000000000000000000000000000000000000000000000000000000000006020830152604082019050919050565b600061157560148361181c565b91507f566f74696e67206e6f7420656e646564207965740000000000000000000000006000830152602082019050919050565b60006115b560168361181c565b91507f596f75206861766520616c726561647920766f746564000000000000000000006000830152602082019050919050565b6115f1816118cc565b82525050565b6000611603828461131a565b915081905092915050565b600061161a82846113d2565b915081905092915050565b60006116318284611403565b915081905092915050565b600060208201905061165160008301846112fc565b92915050565b600060208201905061166c600083018461130b565b92915050565b6000602082019050818103600083015261168c8184611399565b905092915050565b600060208201905081810360008301526116ad81611482565b9050919050565b600060208201905081810360008301526116cd816114c2565b9050919050565b600060208201905081810360008301526116ed81611502565b9050919050565b6000602082019050818103600083015261170d81611568565b9050919050565b6000602082019050818103600083015261172d816115a8565b9050919050565b600060208201905061174960008301846115e8565b92915050565b6000604051905081810181811067ffffffffffffffff82111715611776576117756119f1565b5b8060405250919050565b600067ffffffffffffffff82111561179b5761179a6119f1565b5b602082029050602081019050919050565b600067ffffffffffffffff8211156117c7576117c66119f1565b5b601f19601f8301169050602081019050919050565b60008190508160005260206000209050919050565b60008190508160005260206000209050919050565b600081519050919050565b600081905092915050565b600082825260208201905092915050565b600081905092915050565b6000611843826118cc565b915061184e836118cc565b9250827fffffffffffffffffffffffffffffffffffffffffffffffffffffffffffffffff0382111561188357611882611993565b5b828201905092915050565b6000611899826118ac565b9050919050565b60008115159050919050565b600073ffffffffffffffffffffffffffffffffffffffff82169050919050565b6000819050919050565b82818337600083830152505050565b60005b838110156119035780820151818401526020810190506118e8565b83811115611912576000848401525b50505050565b6000600282049050600182168061193057607f821691505b60208210811415611944576119436119c2565b5b50919050565b6000611955826118cc565b91507fffffffffffffffffffffffffffffffffffffffffffffffffffffffffffffffff82141561198857611987611993565b5b600182019050919050565b7f4e487b7100000000000000000000000000000000000000000000000000000000600052601160045260246000fd5b7f4e487b7100000000000000000000000000000000000000000000000000000000600052602260045260246000fd5b7f4e487b7100000000000000000000000000000000000000000000000000000000600052604160045260246000fd5b6000601f19601f8301169050919050565b611a3a8161188e565b8114611a4557600080fd5b50565b611a51816118cc565b8114611a5c57600080fd5b5056fea264697066735822122049ca26874c8e7b8a0d62941a78add960df7f91d2fbe8359e7d00ab5a66fd492564736f6c63430008000033",
  "immutableReferences": {},
  "source": "// SPDX-License-Identifier: MIT\r\npragma solidity ^0.8.0;\r\n\r\ncontract Voting {\r\n    address public admin;\r\n    bool public votingEnded;\r\n    string[] public candidateList;\r\n    mapping(string => uint256) public votesReceived;\r\n    mapping(address => bool) public hasVoted;\r\n    address[] public votedAccounts;\r\n    string public winner;\r\n\r\n    constructor(string[] memory candidateNames) {\r\n        admin = msg.sender;\r\n        candidateList = candidateNames;\r\n        votingEnded = false;\r\n    }\r\n\r\n    modifier onlyAdmin() {\r\n        require(msg.sender == admin, \"Only admin can perform this action\");\r\n        _;\r\n    }\r\n\r\n    function addCandidate(string memory candidateName) public onlyAdmin {\r\n        candidateList.push(candidateName);\r\n    }\r\n\r\n    function voteForCandidate(string memory candidate) public {\r\n        require(!votingEnded, \"Voting has ended\");\r\n        require(!hasVoted[msg.sender], \"You have already voted\");\r\n        require(validCandidate(candidate), \"Candidate not found\");\r\n\r\n        votesReceived[candidate] += 1;\r\n        hasVoted[msg.sender] = true;\r\n        votedAccounts.push(msg.sender);\r\n    }\r\n\r\n    function totalVotesFor(string memory candidate) public view returns (uint256) {\r\n        require(validCandidate(candidate), \"Candidate not found\");\r\n        return votesReceived[candidate];\r\n    }\r\n\r\n    function endVoting() public onlyAdmin {\r\n        votingEnded = true;\r\n\r\n        uint256 maxVotes = 0;\r\n        for (uint i = 0; i < candidateList.length; i++) {\r\n            if (votesReceived[candidateList[i]] > maxVotes) {\r\n                maxVotes = votesReceived[candidateList[i]];\r\n                winner = candidateList[i];\r\n            }\r\n        }\r\n    }\r\n\r\n    function getWinner() public view returns (string memory) {\r\n        require(votingEnded, \"Voting not ended yet\");\r\n        return winner;\r\n    }\r\n\r\n    function validCandidate(string memory candidate) internal view returns (bool) {\r\n        for (uint i = 0; i < candidateList.length; i++) {\r\n            if (keccak256(bytes(candidateList[i])) == keccak256(bytes(candidate))) {\r\n                return true;\r\n            }\r\n        }\r\n        return false;\r\n    }\r\n\r\n    function resetElection(string[] memory newCandidates) public onlyAdmin {\r\n        require(votingEnded, \"Voting not ended yet\");\r\n\r\n        // Reset candidates and votes\r\n        for (uint i = 0; i < candidateList.length; i++) {\r\n            votesReceived[candidateList[i]] = 0;\r\n        }\r\n        delete candidateList;\r\n        for (uint i = 0; i < newCandidates.length; i++) {\r\n            candidateList.push(newCandidates[i]);\r\n        }\r\n\r\n        // Reset voter status\r\n        for (uint i = 0; i < votedAccounts.length; i++) {\r\n            hasVoted[votedAccounts[i]] = false;\r\n        }\r\n        delete votedAccounts;\r\n\r\n        // Reset state\r\n        votingEnded = false;\r\n        winner = \"\";\r\n    }\r\n\r\n    function candidateListLength() public view returns (uint256) {\r\n        return candidateList.length;\r\n    }\r\n\r\n    function isVotingOngoing() public view returns (bool) {\r\n        return !votingEnded;\r\n    }\r\n}\r\n",
  "sourcePath": "C:\\Users\\Shivam Rai\\Documents\\VotingSystem\\contracts\\Voting.sol",
  "compiler": {
    "name": "solc",
    "version": "0.8.0+commit.c7dfd78e.Emscripten.clang"
  },
  "schemaVersion": "3.4.16",
  "updatedAt": "2025-04-14T16:10:56.679Z",
  "networkType": "ethereum",
  "devdoc": {
    "kind": "dev",
    "methods": {},
    "version": 1
  },
  "userdoc": {
    "kind": "user",
    "methods": {},
    "version": 1
  }
}