{
  "contractName": "Voting",
  "abi": [
    {
      "inputs": [
        {
          "internalType": "string[]",
          "name": "candidateNames",
          "type": "string[]"
        }
      ],
      "stateMutability": "nonpayable",
      "type": "constructor"
    },
    {
      "inputs": [],
      "name": "admin",
      "outputs": [
        {
          "internalType": "address",
          "name": "",
          "type": "address"
        }
      ],
      "stateMutability": "view",
      "type": "function",
      "constant": true
    },
    {
      "inputs": [
        {
          "internalType": "uint256",
          "name": "",
          "type": "uint256"
        }
      ],
      "name": "candidateList",
      "outputs": [
        {
          "internalType": "string",
          "name": "",
          "type": "string"
        }
      ],
      "stateMutability": "view",
      "type": "function",
      "constant": true
    },
    {
      "inputs": [
        {
          "internalType": "address",
          "name": "",
          "type": "address"
        }
      ],
      "name": "hasVoted",
      "outputs": [
        {
          "internalType": "bool",
          "name": "",
          "type": "bool"
        }
      ],
      "stateMutability": "view",
      "type": "function",
      "constant": true
    },
    {
      "inputs": [
        {
          "internalType": "string",
          "name": "",
          "type": "string"
        }
      ],
      "name": "votesReceived",
      "outputs": [
        {
          "internalType": "uint256",
          "name": "",
          "type": "uint256"
        }
      ],
      "stateMutability": "view",
      "type": "function",
      "constant": true
    },
    {
      "inputs": [],
      "name": "votingEnded",
      "outputs": [
        {
          "internalType": "bool",
          "name": "",
          "type": "bool"
        }
      ],
      "stateMutability": "view",
      "type": "function",
      "constant": true
    },
    {
      "inputs": [
        {
          "internalType": "string",
          "name": "candidate",
          "type": "string"
        }
      ],
      "name": "voteForCandidate",
      "outputs": [],
      "stateMutability": "nonpayable",
      "type": "function"
    },
    {
      "inputs": [
        {
          "internalType": "string",
          "name": "candidate",
          "type": "string"
        }
      ],
      "name": "totalVotesFor",
      "outputs": [
        {
          "internalType": "uint256",
          "name": "",
          "type": "uint256"
        }
      ],
      "stateMutability": "view",
      "type": "function",
      "constant": true
    },
    {
      "inputs": [],
      "name": "endVoting",
      "outputs": [],
      "stateMutability": "nonpayable",
      "type": "function"
    },
    {
      "inputs": [],
      "name": "getWinner",
      "outputs": [
        {
          "internalType": "string",
          "name": "winner",
          "type": "string"
        }
      ],
      "stateMutability": "view",
      "type": "function",
      "constant": true
    },
    {
      "inputs": [],
      "name": "candidateListLength",
      "outputs": [
        {
          "internalType": "uint256",
          "name": "",
          "type": "uint256"
        }
      ],
      "stateMutability": "view",
      "type": "function",
      "constant": true
    }
  ],
  "bytecode": "0x60806040523480156200001157600080fd5b50604051620016263803806200162683398181016040528101906200003791906200033a565b336000806101000a81548173ffffffffffffffffffffffffffffffffffffffff021916908373ffffffffffffffffffffffffffffffffffffffff16021790555080600190805190602001906200008f929190620000b1565b5060008060146101000a81548160ff02191690831515021790555050620004df565b82805482825590600052602060002090810192821562000105579160200282015b8281111562000104578251829080519060200190620000f392919062000118565b5091602001919060010190620000d2565b5b509050620001149190620001a9565b5090565b82805462000126906200044b565b90600052602060002090601f0160209004810192826200014a576000855562000196565b82601f106200016557805160ff191683800117855562000196565b8280016001018555821562000196579182015b828111156200019557825182559160200191906001019062000178565b5b509050620001a59190620001d1565b5090565b5b80821115620001cd5760008181620001c39190620001f0565b50600101620001aa565b5090565b5b80821115620001ec576000816000905550600101620001d2565b5090565b508054620001fe906200044b565b6000825580601f1062000212575062000233565b601f016020900490600052602060002090810190620002329190620001d1565b5b50565b60006200024d6200024784620003b3565b6200037f565b9050808382526020820190508260005b858110156200029157815185016200027688826200030d565b8452602084019350602083019250506001810190506200025d565b5050509392505050565b6000620002b2620002ac84620003e2565b6200037f565b905082815260208101848484011115620002cb57600080fd5b620002d884828562000415565b509392505050565b600082601f830112620002f257600080fd5b81516200030484826020860162000236565b91505092915050565b600082601f8301126200031f57600080fd5b8151620003318482602086016200029b565b91505092915050565b6000602082840312156200034d57600080fd5b600082015167ffffffffffffffff8111156200036857600080fd5b6200037684828501620002e0565b91505092915050565b6000604051905081810181811067ffffffffffffffff82111715620003a957620003a8620004b0565b5b8060405250919050565b600067ffffffffffffffff821115620003d157620003d0620004b0565b5b602082029050602081019050919050565b600067ffffffffffffffff8211156200040057620003ff620004b0565b5b601f19601f8301169050602081019050919050565b60005b838110156200043557808201518184015260208101905062000418565b8381111562000445576000848401525b50505050565b600060028204905060018216806200046457607f821691505b602082108114156200047b576200047a62000481565b5b50919050565b7f4e487b7100000000000000000000000000000000000000000000000000000000600052602260045260246000fd5b7f4e487b7100000000000000000000000000000000000000000000000000000000600052604160045260246000fd5b61113780620004ef6000396000f3fe608060405234801561001057600080fd5b506004361061009e5760003560e01c80639d5a0529116100665780639d5a05291461016f578063b13c744b1461018d578063c3403ddf146101bd578063e89927ef146101c7578063f851a440146101e35761009e565b806309eef43e146100a35780634a3bf377146100d35780637a99d766146101035780638d4b44d9146101215780638e7ea5b214610151575b600080fd5b6100bd60048036038101906100b8919061095d565b610201565b6040516100ca9190610d25565b60405180910390f35b6100ed60048036038101906100e89190610986565b610221565b6040516100fa9190610e02565b60405180910390f35b61010b610291565b6040516101189190610e02565b60405180910390f35b61013b60048036038101906101369190610986565b61029e565b6040516101489190610e02565b60405180910390f35b6101596102cc565b6040516101669190610d40565b60405180910390f35b6101776104e3565b6040516101849190610d25565b60405180910390f35b6101a760048036038101906101a291906109c7565b6104f6565b6040516101b49190610d40565b60405180910390f35b6101c56105a2565b005b6101e160048036038101906101dc9190610986565b61064d565b005b6101eb610803565b6040516101f89190610d0a565b60405180910390f35b60036020528060005260406000206000915054906101000a900460ff1681565b600061022c82610827565b61026b576040517f08c379a000000000000000000000000000000000000000000000000000000000815260040161026290610d82565b60405180910390fd5b60028260405161027b9190610cdc565b9081526020016040518091039020549050919050565b6000600180549050905090565b6002818051602081018201805184825260208301602085012081835280955050505050506000915090505481565b6060600060149054906101000a900460ff1661031d576040517f08c379a000000000000000000000000000000000000000000000000000000000815260040161031490610dc2565b60405180910390fd5b6000805b6001805490508110156104de578160026001838154811061036b577f4e487b7100000000000000000000000000000000000000000000000000000000600052603260045260246000fd5b906000526020600020016040516103829190610cf3565b90815260200160405180910390205411156104cb576002600182815481106103d3577f4e487b7100000000000000000000000000000000000000000000000000000000600052603260045260246000fd5b906000526020600020016040516103ea9190610cf3565b908152602001604051809103902054915060018181548110610435577f4e487b7100000000000000000000000000000000000000000000000000000000600052603260045260246000fd5b90600052602060002001805461044a90610fba565b80601f016020809104026020016040519081016040528092919081815260200182805461047690610fba565b80156104c35780601f10610498576101008083540402835291602001916104c3565b820191906000526020600020905b8154815290600101906020018083116104a657829003601f168201915b505050505092505b80806104d690610fec565b915050610321565b505090565b600060149054906101000a900460ff1681565b6001818154811061050657600080fd5b90600052602060002001600091509050805461052190610fba565b80601f016020809104026020016040519081016040528092919081815260200182805461054d90610fba565b801561059a5780601f1061056f5761010080835404028352916020019161059a565b820191906000526020600020905b81548152906001019060200180831161057d57829003601f168201915b505050505081565b60008054906101000a900473ffffffffffffffffffffffffffffffffffffffff1673ffffffffffffffffffffffffffffffffffffffff163373ffffffffffffffffffffffffffffffffffffffff1614610630576040517f08c379a000000000000000000000000000000000000000000000000000000000815260040161062790610d62565b60405180910390fd5b6001600060146101000a81548160ff021916908315150217905550565b600060149054906101000a900460ff161561069d576040517f08c379a000000000000000000000000000000000000000000000000000000000815260040161069490610da2565b60405180910390fd5b600360003373ffffffffffffffffffffffffffffffffffffffff1673ffffffffffffffffffffffffffffffffffffffff16815260200190815260200160002060009054906101000a900460ff161561072a576040517f08c379a000000000000000000000000000000000000000000000000000000000815260040161072190610de2565b60405180910390fd5b61073381610827565b610772576040517f08c379a000000000000000000000000000000000000000000000000000000000815260040161076990610d82565b60405180910390fd5b60016002826040516107849190610cdc565b908152602001604051809103902060008282546107a19190610eda565b925050819055506001600360003373ffffffffffffffffffffffffffffffffffffffff1673ffffffffffffffffffffffffffffffffffffffff16815260200190815260200160002060006101000a81548160ff02191690831515021790555050565b60008054906101000a900473ffffffffffffffffffffffffffffffffffffffff1681565b600080600090505b6001805490508110156108c05782805190602001206001828154811061087e577f4e487b7100000000000000000000000000000000000000000000000000000000600052603260045260246000fd5b906000526020600020016040516108959190610cc5565b604051809103902014156108ad5760019150506108c6565b80806108b890610fec565b91505061082f565b50600090505b919050565b60006108de6108d984610e4e565b610e1d565b9050828152602081018484840111156108f657600080fd5b610901848285610f78565b509392505050565b600081359050610918816110d3565b92915050565b600082601f83011261092f57600080fd5b813561093f8482602086016108cb565b91505092915050565b600081359050610957816110ea565b92915050565b60006020828403121561096f57600080fd5b600061097d84828501610909565b91505092915050565b60006020828403121561099857600080fd5b600082013567ffffffffffffffff8111156109b257600080fd5b6109be8482850161091e565b91505092915050565b6000602082840312156109d957600080fd5b60006109e784828501610948565b91505092915050565b6109f981610f30565b82525050565b610a0881610f42565b82525050565b60008154610a1b81610fba565b610a258186610eb3565b94506001821660008114610a405760018114610a5157610a84565b60ff19831686528186019350610a84565b610a5a85610e7e565b60005b83811015610a7c57815481890152600182019150602081019050610a5d565b838801955050505b50505092915050565b6000610a9882610ea8565b610aa28185610ebe565b9350610ab2818560208601610f87565b610abb816110c2565b840191505092915050565b6000610ad182610ea8565b610adb8185610ecf565b9350610aeb818560208601610f87565b80840191505092915050565b60008154610b0481610fba565b610b0e8186610ecf565b94506001821660008114610b295760018114610b3a57610b6d565b60ff19831686528186019350610b6d565b610b4385610e93565b60005b83811015610b6557815481890152600182019150602081019050610b46565b838801955050505b50505092915050565b6000610b83601983610ebe565b91507f4f6e6c792061646d696e2063616e20656e6420766f74696e67000000000000006000830152602082019050919050565b6000610bc3601383610ebe565b91507f43616e646964617465206e6f7420666f756e64000000000000000000000000006000830152602082019050919050565b6000610c03601083610ebe565b91507f566f74696e672068617320656e646564000000000000000000000000000000006000830152602082019050919050565b6000610c43601483610ebe565b91507f566f74696e67206e6f7420656e646564207965740000000000000000000000006000830152602082019050919050565b6000610c83601683610ebe565b91507f596f75206861766520616c726561647920766f746564000000000000000000006000830152602082019050919050565b610cbf81610f6e565b82525050565b6000610cd18284610a0e565b915081905092915050565b6000610ce88284610ac6565b915081905092915050565b6000610cff8284610af7565b915081905092915050565b6000602082019050610d1f60008301846109f0565b92915050565b6000602082019050610d3a60008301846109ff565b92915050565b60006020820190508181036000830152610d5a8184610a8d565b905092915050565b60006020820190508181036000830152610d7b81610b76565b9050919050565b60006020820190508181036000830152610d9b81610bb6565b9050919050565b60006020820190508181036000830152610dbb81610bf6565b9050919050565b60006020820190508181036000830152610ddb81610c36565b9050919050565b60006020820190508181036000830152610dfb81610c76565b9050919050565b6000602082019050610e176000830184610cb6565b92915050565b6000604051905081810181811067ffffffffffffffff82111715610e4457610e43611093565b5b8060405250919050565b600067ffffffffffffffff821115610e6957610e68611093565b5b601f19601f8301169050602081019050919050565b60008190508160005260206000209050919050565b60008190508160005260206000209050919050565b600081519050919050565b600081905092915050565b600082825260208201905092915050565b600081905092915050565b6000610ee582610f6e565b9150610ef083610f6e565b9250827fffffffffffffffffffffffffffffffffffffffffffffffffffffffffffffffff03821115610f2557610f24611035565b5b828201905092915050565b6000610f3b82610f4e565b9050919050565b60008115159050919050565b600073ffffffffffffffffffffffffffffffffffffffff82169050919050565b6000819050919050565b82818337600083830152505050565b60005b83811015610fa5578082015181840152602081019050610f8a565b83811115610fb4576000848401525b50505050565b60006002820490506001821680610fd257607f821691505b60208210811415610fe657610fe5611064565b5b50919050565b6000610ff782610f6e565b91507fffffffffffffffffffffffffffffffffffffffffffffffffffffffffffffffff82141561102a57611029611035565b5b600182019050919050565b7f4e487b7100000000000000000000000000000000000000000000000000000000600052601160045260246000fd5b7f4e487b7100000000000000000000000000000000000000000000000000000000600052602260045260246000fd5b7f4e487b7100000000000000000000000000000000000000000000000000000000600052604160045260246000fd5b6000601f19601f8301169050919050565b6110dc81610f30565b81146110e757600080fd5b50565b6110f381610f6e565b81146110fe57600080fd5b5056fea2646970667358221220080aa70ea0782535dad0c3d9617c01f3b0acc3510d2fdd1a6007bd61d87a231964736f6c63430008000033",
  "immutableReferences": {},
  "source": "// SPDX-License-Identifier: MIT\r\npragma solidity ^0.8.0;\r\n\r\ncontract Voting {\r\n    address public admin;\r\n    bool public votingEnded;\r\n\r\n    string[] public candidateList;\r\n    mapping(string => uint256) public votesReceived;\r\n    mapping(address => bool) public hasVoted;\r\n\r\n    constructor(string[] memory candidateNames) {\r\n        admin = msg.sender;\r\n        candidateList = candidateNames;\r\n        votingEnded = false;\r\n    }\r\n\r\n    function voteForCandidate(string memory candidate) public {\r\n        require(!votingEnded, \"Voting has ended\");\r\n        require(!hasVoted[msg.sender], \"You have already voted\");\r\n        require(validCandidate(candidate), \"Candidate not found\");\r\n\r\n        votesReceived[candidate] += 1;\r\n        hasVoted[msg.sender] = true;\r\n    }\r\n\r\n    function totalVotesFor(string memory candidate) public view returns (uint256) {\r\n        require(validCandidate(candidate), \"Candidate not found\");\r\n        return votesReceived[candidate];\r\n    }\r\n\r\n    function endVoting() public {\r\n        require(msg.sender == admin, \"Only admin can end voting\");\r\n        votingEnded = true;\r\n    }\r\n\r\n    function getWinner() public view returns (string memory winner) {\r\n        require(votingEnded, \"Voting not ended yet\");\r\n\r\n        uint256 maxVotes = 0;\r\n        for (uint i = 0; i < candidateList.length; i++) {\r\n            if (votesReceived[candidateList[i]] > maxVotes) {\r\n                maxVotes = votesReceived[candidateList[i]];\r\n                winner = candidateList[i];\r\n            }\r\n        }\r\n    }\r\n\r\n    function candidateListLength() public view returns (uint256) {\r\n        return candidateList.length;\r\n    }\r\n\r\n    function validCandidate(string memory candidate) internal view returns (bool) {\r\n        for (uint i = 0; i < candidateList.length; i++) {\r\n            if (keccak256(bytes(candidateList[i])) == keccak256(bytes(candidate))) {\r\n                return true;\r\n            }\r\n        }\r\n        return false;\r\n    }\r\n}\r\n",
  "sourcePath": "C:\\Users\\Shivam Rai\\Documents\\VotingSystem\\contracts\\Voting.sol",
  "compiler": {
    "name": "solc",
    "version": "0.8.0+commit.c7dfd78e.Emscripten.clang"
  },
  "schemaVersion": "3.4.16",
  "updatedAt": "2025-04-13T15:08:17.717Z",
  "networkType": "ethereum",
  "devdoc": {
    "kind": "dev",
    "methods": {},
    "version": 1
  },
  "userdoc": {
    "kind": "user",
    "methods": {},
    "version": 1
  }
}