{
  "contractName": "Voting",
  "abi": [
    {
      "inputs": [
        {
          "internalType": "string[]",
          "name": "candidateNames",
          "type": "string[]"
        }
      ],
      "stateMutability": "nonpayable",
      "type": "constructor"
    },
    {
      "inputs": [],
      "name": "admin",
      "outputs": [
        {
          "internalType": "address",
          "name": "",
          "type": "address"
        }
      ],
      "stateMutability": "view",
      "type": "function",
      "constant": true
    },
    {
      "inputs": [
        {
          "internalType": "uint256",
          "name": "",
          "type": "uint256"
        }
      ],
      "name": "candidateList",
      "outputs": [
        {
          "internalType": "string",
          "name": "",
          "type": "string"
        }
      ],
      "stateMutability": "view",
      "type": "function",
      "constant": true
    },
    {
      "inputs": [
        {
          "internalType": "address",
          "name": "",
          "type": "address"
        }
      ],
      "name": "hasVoted",
      "outputs": [
        {
          "internalType": "bool",
          "name": "",
          "type": "bool"
        }
      ],
      "stateMutability": "view",
      "type": "function",
      "constant": true
    },
    {
      "inputs": [
        {
          "internalType": "string",
          "name": "",
          "type": "string"
        }
      ],
      "name": "votesReceived",
      "outputs": [
        {
          "internalType": "uint256",
          "name": "",
          "type": "uint256"
        }
      ],
      "stateMutability": "view",
      "type": "function",
      "constant": true
    },
    {
      "inputs": [],
      "name": "votingEnded",
      "outputs": [
        {
          "internalType": "bool",
          "name": "",
          "type": "bool"
        }
      ],
      "stateMutability": "view",
      "type": "function",
      "constant": true
    },
    {
      "inputs": [
        {
          "internalType": "string",
          "name": "candidateName",
          "type": "string"
        }
      ],
      "name": "addCandidate",
      "outputs": [],
      "stateMutability": "nonpayable",
      "type": "function"
    },
    {
      "inputs": [
        {
          "internalType": "string",
          "name": "candidate",
          "type": "string"
        }
      ],
      "name": "voteForCandidate",
      "outputs": [],
      "stateMutability": "nonpayable",
      "type": "function"
    },
    {
      "inputs": [
        {
          "internalType": "string",
          "name": "candidate",
          "type": "string"
        }
      ],
      "name": "totalVotesFor",
      "outputs": [
        {
          "internalType": "uint256",
          "name": "",
          "type": "uint256"
        }
      ],
      "stateMutability": "view",
      "type": "function",
      "constant": true
    },
    {
      "inputs": [],
      "name": "endVoting",
      "outputs": [],
      "stateMutability": "nonpayable",
      "type": "function"
    },
    {
      "inputs": [],
      "name": "getWinner",
      "outputs": [
        {
          "internalType": "string",
          "name": "winner",
          "type": "string"
        }
      ],
      "stateMutability": "view",
      "type": "function",
      "constant": true
    }
  ],
  "bytecode": "0x60806040523480156200001157600080fd5b50604051620017e7380380620017e783398181016040528101906200003791906200033a565b336000806101000a81548173ffffffffffffffffffffffffffffffffffffffff021916908373ffffffffffffffffffffffffffffffffffffffff16021790555080600190805190602001906200008f929190620000b1565b5060008060146101000a81548160ff02191690831515021790555050620004df565b82805482825590600052602060002090810192821562000105579160200282015b8281111562000104578251829080519060200190620000f392919062000118565b5091602001919060010190620000d2565b5b509050620001149190620001a9565b5090565b82805462000126906200044b565b90600052602060002090601f0160209004810192826200014a576000855562000196565b82601f106200016557805160ff191683800117855562000196565b8280016001018555821562000196579182015b828111156200019557825182559160200191906001019062000178565b5b509050620001a59190620001d1565b5090565b5b80821115620001cd5760008181620001c39190620001f0565b50600101620001aa565b5090565b5b80821115620001ec576000816000905550600101620001d2565b5090565b508054620001fe906200044b565b6000825580601f1062000212575062000233565b601f016020900490600052602060002090810190620002329190620001d1565b5b50565b60006200024d6200024784620003b3565b6200037f565b9050808382526020820190508260005b858110156200029157815185016200027688826200030d565b8452602084019350602083019250506001810190506200025d565b5050509392505050565b6000620002b2620002ac84620003e2565b6200037f565b905082815260208101848484011115620002cb57600080fd5b620002d884828562000415565b509392505050565b600082601f830112620002f257600080fd5b81516200030484826020860162000236565b91505092915050565b600082601f8301126200031f57600080fd5b8151620003318482602086016200029b565b91505092915050565b6000602082840312156200034d57600080fd5b600082015167ffffffffffffffff8111156200036857600080fd5b6200037684828501620002e0565b91505092915050565b6000604051905081810181811067ffffffffffffffff82111715620003a957620003a8620004b0565b5b8060405250919050565b600067ffffffffffffffff821115620003d157620003d0620004b0565b5b602082029050602081019050919050565b600067ffffffffffffffff8211156200040057620003ff620004b0565b5b601f19601f8301169050602081019050919050565b60005b838110156200043557808201518184015260208101905062000418565b8381111562000445576000848401525b50505050565b600060028204905060018216806200046457607f821691505b602082108114156200047b576200047a62000481565b5b50919050565b7f4e487b7100000000000000000000000000000000000000000000000000000000600052602260045260246000fd5b7f4e487b7100000000000000000000000000000000000000000000000000000000600052604160045260246000fd5b6112f880620004ef6000396000f3fe608060405234801561001057600080fd5b506004361061009e5760003560e01c80639d5a0529116100665780639d5a05291461016d578063b13c744b1461018b578063c3403ddf146101bb578063e89927ef146101c5578063f851a440146101e15761009e565b806309eef43e146100a3578063462e91ec146100d35780634a3bf377146100ef5780638d4b44d91461011f5780638e7ea5b21461014f575b600080fd5b6100bd60048036038101906100b89190610abe565b6101ff565b6040516100ca9190610ec6565b60405180910390f35b6100ed60048036038101906100e89190610ae7565b61021f565b005b61010960048036038101906101049190610ae7565b6102ec565b6040516101169190610fc3565b60405180910390f35b61013960048036038101906101349190610ae7565b61035c565b6040516101469190610fc3565b60405180910390f35b61015761038a565b6040516101649190610ee1565b60405180910390f35b6101756105a1565b6040516101829190610ec6565b60405180910390f35b6101a560048036038101906101a09190610b28565b6105b4565b6040516101b29190610ee1565b60405180910390f35b6101c3610660565b005b6101df60048036038101906101da9190610ae7565b61070b565b005b6101e96108c1565b6040516101f69190610eab565b60405180910390f35b60036020528060005260406000206000915054906101000a900460ff1681565b60008054906101000a900473ffffffffffffffffffffffffffffffffffffffff1673ffffffffffffffffffffffffffffffffffffffff163373ffffffffffffffffffffffffffffffffffffffff16146102ad576040517f08c379a00000000000000000000000000000000000000000000000000000000081526004016102a490610f23565b60405180910390fd5b6001819080600181540180825580915050600190039060005260206000200160009091909190915090805190602001906102e8929190610989565b5050565b60006102f7826108e5565b610336576040517f08c379a000000000000000000000000000000000000000000000000000000000815260040161032d90610f43565b60405180910390fd5b6002826040516103469190610e7d565b9081526020016040518091039020549050919050565b6002818051602081018201805184825260208301602085012081835280955050505050506000915090505481565b6060600060149054906101000a900460ff166103db576040517f08c379a00000000000000000000000000000000000000000000000000000000081526004016103d290610f83565b60405180910390fd5b6000805b60018054905081101561059c5781600260018381548110610429577f4e487b7100000000000000000000000000000000000000000000000000000000600052603260045260246000fd5b906000526020600020016040516104409190610e94565b908152602001604051809103902054111561058957600260018281548110610491577f4e487b7100000000000000000000000000000000000000000000000000000000600052603260045260246000fd5b906000526020600020016040516104a89190610e94565b9081526020016040518091039020549150600181815481106104f3577f4e487b7100000000000000000000000000000000000000000000000000000000600052603260045260246000fd5b9060005260206000200180546105089061117b565b80601f01602080910402602001604051908101604052809291908181526020018280546105349061117b565b80156105815780601f1061055657610100808354040283529160200191610581565b820191906000526020600020905b81548152906001019060200180831161056457829003601f168201915b505050505092505b8080610594906111ad565b9150506103df565b505090565b600060149054906101000a900460ff1681565b600181815481106105c457600080fd5b9060005260206000200160009150905080546105df9061117b565b80601f016020809104026020016040519081016040528092919081815260200182805461060b9061117b565b80156106585780601f1061062d57610100808354040283529160200191610658565b820191906000526020600020905b81548152906001019060200180831161063b57829003601f168201915b505050505081565b60008054906101000a900473ffffffffffffffffffffffffffffffffffffffff1673ffffffffffffffffffffffffffffffffffffffff163373ffffffffffffffffffffffffffffffffffffffff16146106ee576040517f08c379a00000000000000000000000000000000000000000000000000000000081526004016106e590610f03565b60405180910390fd5b6001600060146101000a81548160ff021916908315150217905550565b600060149054906101000a900460ff161561075b576040517f08c379a000000000000000000000000000000000000000000000000000000000815260040161075290610f63565b60405180910390fd5b600360003373ffffffffffffffffffffffffffffffffffffffff1673ffffffffffffffffffffffffffffffffffffffff16815260200190815260200160002060009054906101000a900460ff16156107e8576040517f08c379a00000000000000000000000000000000000000000000000000000000081526004016107df90610fa3565b60405180910390fd5b6107f1816108e5565b610830576040517f08c379a000000000000000000000000000000000000000000000000000000000815260040161082790610f43565b60405180910390fd5b60016002826040516108429190610e7d565b9081526020016040518091039020600082825461085f919061109b565b925050819055506001600360003373ffffffffffffffffffffffffffffffffffffffff1673ffffffffffffffffffffffffffffffffffffffff16815260200190815260200160002060006101000a81548160ff02191690831515021790555050565b60008054906101000a900473ffffffffffffffffffffffffffffffffffffffff1681565b600080600090505b60018054905081101561097e5782805190602001206001828154811061093c577f4e487b7100000000000000000000000000000000000000000000000000000000600052603260045260246000fd5b906000526020600020016040516109539190610e66565b6040518091039020141561096b576001915050610984565b8080610976906111ad565b9150506108ed565b50600090505b919050565b8280546109959061117b565b90600052602060002090601f0160209004810192826109b757600085556109fe565b82601f106109d057805160ff19168380011785556109fe565b828001600101855582156109fe579182015b828111156109fd5782518255916020019190600101906109e2565b5b509050610a0b9190610a0f565b5090565b5b80821115610a28576000816000905550600101610a10565b5090565b6000610a3f610a3a8461100f565b610fde565b905082815260208101848484011115610a5757600080fd5b610a62848285611139565b509392505050565b600081359050610a7981611294565b92915050565b600082601f830112610a9057600080fd5b8135610aa0848260208601610a2c565b91505092915050565b600081359050610ab8816112ab565b92915050565b600060208284031215610ad057600080fd5b6000610ade84828501610a6a565b91505092915050565b600060208284031215610af957600080fd5b600082013567ffffffffffffffff811115610b1357600080fd5b610b1f84828501610a7f565b91505092915050565b600060208284031215610b3a57600080fd5b6000610b4884828501610aa9565b91505092915050565b610b5a816110f1565b82525050565b610b6981611103565b82525050565b60008154610b7c8161117b565b610b868186611074565b94506001821660008114610ba15760018114610bb257610be5565b60ff19831686528186019350610be5565b610bbb8561103f565b60005b83811015610bdd57815481890152600182019150602081019050610bbe565b838801955050505b50505092915050565b6000610bf982611069565b610c03818561107f565b9350610c13818560208601611148565b610c1c81611283565b840191505092915050565b6000610c3282611069565b610c3c8185611090565b9350610c4c818560208601611148565b80840191505092915050565b60008154610c658161117b565b610c6f8186611090565b94506001821660008114610c8a5760018114610c9b57610cce565b60ff19831686528186019350610cce565b610ca485611054565b60005b83811015610cc657815481890152600182019150602081019050610ca7565b838801955050505b50505092915050565b6000610ce460198361107f565b91507f4f6e6c792061646d696e2063616e20656e6420766f74696e67000000000000006000830152602082019050919050565b6000610d24601d8361107f565b91507f4f6e6c792061646d696e2063616e206164642063616e646964617465730000006000830152602082019050919050565b6000610d6460138361107f565b91507f43616e646964617465206e6f7420666f756e64000000000000000000000000006000830152602082019050919050565b6000610da460108361107f565b91507f566f74696e672068617320656e646564000000000000000000000000000000006000830152602082019050919050565b6000610de460148361107f565b91507f566f74696e67206e6f7420656e646564207965740000000000000000000000006000830152602082019050919050565b6000610e2460168361107f565b91507f596f75206861766520616c726561647920766f746564000000000000000000006000830152602082019050919050565b610e608161112f565b82525050565b6000610e728284610b6f565b915081905092915050565b6000610e898284610c27565b915081905092915050565b6000610ea08284610c58565b915081905092915050565b6000602082019050610ec06000830184610b51565b92915050565b6000602082019050610edb6000830184610b60565b92915050565b60006020820190508181036000830152610efb8184610bee565b905092915050565b60006020820190508181036000830152610f1c81610cd7565b9050919050565b60006020820190508181036000830152610f3c81610d17565b9050919050565b60006020820190508181036000830152610f5c81610d57565b9050919050565b60006020820190508181036000830152610f7c81610d97565b9050919050565b60006020820190508181036000830152610f9c81610dd7565b9050919050565b60006020820190508181036000830152610fbc81610e17565b9050919050565b6000602082019050610fd86000830184610e57565b92915050565b6000604051905081810181811067ffffffffffffffff8211171561100557611004611254565b5b8060405250919050565b600067ffffffffffffffff82111561102a57611029611254565b5b601f19601f8301169050602081019050919050565b60008190508160005260206000209050919050565b60008190508160005260206000209050919050565b600081519050919050565b600081905092915050565b600082825260208201905092915050565b600081905092915050565b60006110a68261112f565b91506110b18361112f565b9250827fffffffffffffffffffffffffffffffffffffffffffffffffffffffffffffffff038211156110e6576110e56111f6565b5b828201905092915050565b60006110fc8261110f565b9050919050565b60008115159050919050565b600073ffffffffffffffffffffffffffffffffffffffff82169050919050565b6000819050919050565b82818337600083830152505050565b60005b8381101561116657808201518184015260208101905061114b565b83811115611175576000848401525b50505050565b6000600282049050600182168061119357607f821691505b602082108114156111a7576111a6611225565b5b50919050565b60006111b88261112f565b91507fffffffffffffffffffffffffffffffffffffffffffffffffffffffffffffffff8214156111eb576111ea6111f6565b5b600182019050919050565b7f4e487b7100000000000000000000000000000000000000000000000000000000600052601160045260246000fd5b7f4e487b7100000000000000000000000000000000000000000000000000000000600052602260045260246000fd5b7f4e487b7100000000000000000000000000000000000000000000000000000000600052604160045260246000fd5b6000601f19601f8301169050919050565b61129d816110f1565b81146112a857600080fd5b50565b6112b48161112f565b81146112bf57600080fd5b5056fea264697066735822122054f07d7cf1ea949fe1680e2677f26d600890a6ae75f7a1eb77202b4f05e1d21564736f6c63430008000033",
  "immutableReferences": {},
  "source": "// SPDX-License-Identifier: MIT\r\npragma solidity ^0.8.0;\r\n\r\ncontract Voting {\r\n    address public admin;\r\n    bool public votingEnded;\r\n    string[] public candidateList;\r\n    mapping(string => uint256) public votesReceived;\r\n    mapping(address => bool) public hasVoted;\r\n\r\n    constructor(string[] memory candidateNames) {\r\n        admin = msg.sender;\r\n        candidateList = candidateNames;\r\n        votingEnded = false;\r\n    }\r\n\r\n    function addCandidate(string memory candidateName) public {\r\n        require(msg.sender == admin, \"Only admin can add candidates\");\r\n        candidateList.push(candidateName);\r\n    }\r\n\r\n    function voteForCandidate(string memory candidate) public {\r\n        require(!votingEnded, \"Voting has ended\");\r\n        require(!hasVoted[msg.sender], \"You have already voted\");\r\n        require(validCandidate(candidate), \"Candidate not found\");\r\n\r\n        votesReceived[candidate] += 1;\r\n        hasVoted[msg.sender] = true;\r\n    }\r\n\r\n    function totalVotesFor(string memory candidate) public view returns (uint256) {\r\n        require(validCandidate(candidate), \"Candidate not found\");\r\n        return votesReceived[candidate];\r\n    }\r\n\r\n    function endVoting() public {\r\n        require(msg.sender == admin, \"Only admin can end voting\");\r\n        votingEnded = true;\r\n    }\r\n\r\n    function getWinner() public view returns (string memory winner) {\r\n        require(votingEnded, \"Voting not ended yet\");\r\n\r\n        uint256 maxVotes = 0;\r\n        for (uint i = 0; i < candidateList.length; i++) {\r\n            if (votesReceived[candidateList[i]] > maxVotes) {\r\n                maxVotes = votesReceived[candidateList[i]];\r\n                winner = candidateList[i];\r\n            }\r\n        }\r\n    }\r\n\r\n    function validCandidate(string memory candidate) internal view returns (bool) {\r\n        for (uint i = 0; i < candidateList.length; i++) {\r\n            if (keccak256(bytes(candidateList[i])) == keccak256(bytes(candidate))) {\r\n                return true;\r\n            }\r\n        }\r\n        return false;\r\n    }\r\n}\r\n",
  "sourcePath": "C:\\Users\\Shivam Rai\\Documents\\VotingSystem\\contracts\\Voting.sol",
  "compiler": {
    "name": "solc",
    "version": "0.8.0+commit.c7dfd78e.Emscripten.clang"
  },
  "schemaVersion": "3.4.16",
  "updatedAt": "2025-04-14T09:17:31.725Z",
  "networkType": "ethereum",
  "devdoc": {
    "kind": "dev",
    "methods": {},
    "version": 1
  },
  "userdoc": {
    "kind": "user",
    "methods": {},
    "version": 1
  }
}